:020000001528C1
:100008007E14803120007F08F0002100901E102807
:100018002000901E10281E2570082000FF007E106A
:100028000900162860308400203085009030FE00DA
:100038000030FF00C224CD01CE01CF01D001282518
:10004800D1007E1020002828E3241430F100053068
:10005800F2000E258B170B17803032009800003005
:100068002000C4000030C3009030C2000030C1003E
:100078000030CC000030CB000030CA000030C9008E
:100088000030C8000030C7000030C6000030C5008E
:100098004908AF004A08B0004B08B1004C08B2004C
:1000A8000830B300B237B10CB00CAF0CB30B562804
:1000B8003008F2002F08F1005108B4003408F300AA
:1000C80053247A220A30F1000030F200B4242000D0
:1000D8004908AF004A08B0004B08B1004C08B2000C
:1000E8000830B300B237B10CB00CAF0CB30B7628A4
:1000F8003008F2002F08F100F301532414302000D7
:10010800AF000030B0000030B1000030B200450848
:10011800AF074608B03D4708B13D4808B23D320830
:10012800C8003108C7003008C6002F08C5004908B4
:100138004507AF004A08463DB0004B08473DB100AF
:100148004C08483DB2003208CC003108CB003008DA
:10015800CA002F08C9004C08803AAF004408803A0A
:100168002F02031DC12843084B02031DC128420862
:100178004A02031DC12841084902031C4D290030C9
:100188004107C900FF30423DCA00FF30433DCB0064
:10019800FF30443DCC000030A3000030A200003006
:1001A800A1000530A0004509F1004609F200470901
:1001B800F3004809F400F10A0319F20A0319F30AD3
:1001C8000319F40A0030F8000030F7000030F60098
:1001D8000330F500242474082000A7007308A60043
:1001E8007208A5007108A4006E2320002308C80027
:1001F8002208C7002108C6002008C500C81F0E290C
:10020800B1304502FF30463BFF30473BFF30483BAB
:10021800031C4D294108AF004208B0004308B10053
:100228004408B2000830B300B237B10CB00CAF0CC0
:10023800B30B18292F08FF3EF100FF30303DF200C4
:100248005108B4003408F300532400302000AF00F4
:10025800F830B000FF30B100FF30B2004108AF07FE
:100268004208B03D4308B13D4408B23D3208C400DD
:100278003108C3003008C2002F08C1005108133EDE
:10028800AF002F08D10019305102031C4D29183036
:10029800D1024C08803AAF004408803A2F02031D6F
:1002A8005F2943084B02031D5F2942084A02031DC8
:1002B8005F2941084902031C4C28C41B6D294408C6
:1002C800031D3C284308031D3C2801304202031843
:1002D8003C287A22F430F1000130F200B4240030D6
:1002E8002000CC000030CB000030CA000030C9002C
:1002F8000030C8000030C7000030C6000030C5001C
:1003080049084507AF004A08463DB0004B08473D3D
:10031800B1004C08483DB2003208CC003108CB008F
:100328003008CA002F08C9000A30AF000030B000FA
:100338000030B1000030B2004508AF074608B03DB4
:100348004708B13D4808B23D3208C8003108C70027
:100358003008C6002F08C5008F30BF000030C0002D
:100368004908AF004A08B0004B08B1004C08B20079
:100378000830B300B237B10CB00CAF0CB30BBE29C8
:100388004008803AB4003008803A3402031DCE2970
:100398002F083F02031C612A20004509AF004609C7
:1003A800B0004709B1004809B200AF0A0319B00A02
:1003B8000319B10A0319B20AFF304905B300003026
:1003C8004A05B40000304B05B50000304C05B600B6
:1003D8003F08B7004008B8000030B81BFF30B9002C
:1003E800BA000830B735B80DB90DBA0D890BF62922
:1003F8003708B3073808B43D3908B53D3A08B63D63
:100408003308AF073408B03D3508B13D3608B23D72
:100418003208BE003108BD003008BC002F08BB0000
:100428003E08803AAF004C08803A2F02031D262A66
:100438004B083D02031D262A4A083C02031D262AB2
:1004480049083B02031C512A3B08AF003C08B00096
:100458003D08B1003E08B2000830B300B237B10C15
:10046800B00CAF0CB30B322A2F08603E8600870110
:100478002030873D0108B4006030B5002030B60058
:100488003F083507B7004008363DB80037088600F2
:1004980038088700340881005C2A6030AF002030BB
:1004A800B0003F082F0786004008303D87008101D3
:1004B800FF30BF07FF30C03DB4297A220A30F1006F
:1004C8000030F200B4242000CC1B84294C08031D02
:1004D800742A4B08031D742A90304A02031C84298D
:1004E800F430F1000130F200B4243328F7019030E1
:1004F8007702031808007708013E2000A0000030AA
:1005080003180130A100A009A109A00A0319A10A32
:100518002008903EA2000030213DA3006030A400D6
:100528002030A5002208240786002308253D8700DF
:100538000108A6002608F8007808031DA72A00303D
:10054800F5240030E52A093078020318E82A7808EB
:100558002000A000A1012008F1002108F2003C3091
:10056800F3000030F400752471082000A20072081E
:10057800A300A336A20CA336A20CA336A20C220811
:10058800F52478082000A000A101A009A109A00A6B
:100598000319A10A2008083EF1000030213DF200AD
:1005A8003C30F3000030F400752471082000A200EC
:1005B8007208A300A336A20CA336A20CA336A20C81
:1005C8002208F5240030672B113078020318282BF5
:1005D80078082000A000A101A009A109A00A031918
:1005E800A10A2008103EF1000030213DF2003C3005
:1005F800F3000030F400752471082000A20072088E
:10060800A300A336A20CA336A20CA336A20C220880
:10061800F5240030F5247808F83EF100FF3003187F
:100628000030F2003C30F3000030F400752471080B
:100638002000A0007208A100A136A00CA136A00CD1
:10064800A136A00C2008672B19307802031808007F
:100658000030F5247808F03EF100FF300318003030
:10066800F2003C30F3000030F400752471082000DB
:10067800A0007208A100A136A00CA136A00CA136DA
:10068800A00C2008F52478082000A000A101A009EA
:10069800A109A00A0319A10A2008183EF100003098
:1006A800213DF2003C30F3000030F400752471085D
:1006B8002000A2007208A300A336A20CA336A20C45
:1006C800A336A20C2208F52401302000A00020083F
:1006D800F7077B2A2000AA01A31F7F2BA009A109E5
:1006E800A209A309A00A0319A10A0319A20A031956
:1006F800A30AAA01AA0AA71F902BA409A509A6095B
:10070800A709A40A0319A50A0319A60A0319A70A1F
:100718000130A8002808AA060030AE000030AD005D
:100728000030AC000030AB00230822042104200470
:100738000319D92BA901A90AA31BAE2B0130A03597
:10074800A10DA20DA30D890BA32B0130A800280829
:10075800A907A02B0130AB35AC0DAD0DAE0D890B43
:10076800AF2B23082702031DC32B22082602031DD3
:10077800C32B21082502031DC32B20082402031CB8
:10078800CE2B2008A4022108A53B2208A63B23085B
:10079800A73B2B140130A336A20CA10CA00C890B8B
:1007A800CF2B0130A902031DAE2B2A080319E72B12
:1007B800AB09AC09AD09AE09AB0A0319AC0A0319B8
:1007C800AD0A0319AE0A2E08A3002D08A2002C08B2
:1007D800A1002B08A000080022008C0121008C0138
:1007E80023008C0124008C0125008C0100308B1B18
:1007F8000130F1008B1355303C008F00AA308F0078
:100808000F103D001108E039183891003C0020080D
:10081800E0390138A0002108E0390338A1003D0083
:100828001508E0390438950055303C008F00AA308F
:100838008F000F14711C222C8B1708008B130800D3
:100848000030FC000030FB000030FA000030F900F6
:10085800711C362C7508F9077608FA3D7708FB3DB8
:100868007808FC3D0130F535F60DF70DF80D890BCC
:10087800372C0130F436F30CF20CF10C890B3E2CBA
:100888007408730472047104031D2C2C7C08F40092
:100898007B08F3007A08F2007908F1000800F801F3
:1008A80008307802031808006030F4002030F500A2
:1008B80071087407F6007208753DF700760886001F
:1008C800770887007308810071087204031908000B
:1008D8000130F1020030F23B0130F4007408F807EF
:1008E800542CF501F601711C7D2C7308F50774086A
:1008F800F63D0130F335F40D890B7E2C0130F236CC
:10090800F10C890B832C71087204031D772C76086F
:10091800F2007508F10008003E00910110309200C5
:100928001330930012309400103095000A3096006E
:10093800203097009801990180309000080020002D
:10094800970145309800F9309600950190122100E2
:1009580090162930F1000530F2000E2525250800F3
:10096800720820005002031DBB2C71084F020318A7
:10097800BF2C6300B42CCF01D001080064008001B3
:1009880001310130FE020030FF3B7F087E0403196D
:100998000034C32C20004D084E04031908004E08EB
:1009A8008A004D080A0084310800320099019B0131
:1009B8009D0106309F009E011C180800E02CF023C2
:1009C800D9241A25FE2490240625EC24A324080003
:1009D800083020009F0004309E009D0191102225C0
:1009E8000800F1002400951371089100141CFA2CDA
:1009F8001108080040302400940023309500093085
:100A08009200080080302C00990002309800403095
:100A18009700080072082000CE007108CD00080079
:100A280001302000CF070030D03D080016302100EB
:100A38009700080020009012CE24080020001F15FF
:0C0A480008002000971708000134080087
:020000040001F9
:08000E008CFFF2FFFFDFFFFF92
:00000001FF
